:020000022000DC
:106000000000012009240300492403004B2403005D
:106010004D2403004F24030051240300000000001E
:1060200000000000000000000000000085230300C5
:106030005524030000000000A52303005924030099
:106040005B2403005B240300D1FD02005B240300FA
:106050005B2403005B2403005B2403005B24030038
:106060005B2403005B2403005B2403005B24030028
:106070005B2403005B2403005B2403005B24030018
:106080005B240300DD2003005B2403005B2403008A
:106090005B2403005B240300BD8802005B24030033
:1060A0005B2403005B2403005B2403005B240300E8
:1060B0005B2403005B2403000000000000000000DC
:1060C0005B2403005B2403005B2403005B240300C8
:1060D0005B2403005B2403005B240300000000003A
:1060E00000000000000000000000000000000000B0
:1060F00000000000000000000000000000000000A0
:10610000000000000000000000000000000000008F
:10611000000000000000000000000000000000007F
:10612000000000000000000000000000000000006F
:10613000000000000000000000000000000000005F
:10614000000000000000000000000000000000004F
:10615000000000000000000000000000000000003F
:10616000000000000000000000000000000000002F
:10617000000000000000000000000000000000001F
:10618000000000000000000000000000000000000F
:1061900000000000000000000000000000000000FF
:1061A00000000000000000000000000000000000EF
:1061B00000000000000000000000000000000000DF
:1061C00000000000000000000000000000000000CF
:1061D00000000000000000000000000000000000BF
:1061E00000000000000000000000000000000000AF
:1061F000000000000000000000000000000000009F
:10620000F1EE103A43F08073E1EE103A704700BFB0
:1062100010B5054C237833B9044B13B10448AFF3E0
:1062200000800123237010BD4C38002000000000C6
:10623000F477030008B5034B1BB103490348AFF3E0
:10624000008008BD0000000050380020F4770300F3
:10625000154B002B08BF134B9D46A3F5803A002138
:106260008B460F461348144A121A0DF00BFC0F4BC5
:10627000002B00D098470E4B002B00D098470020F1
:10628000002104000D000D48002802D00C48AFF397
:1062900000800DF08DFB200029000CF009F90DF0B5
:1062A00061FB00BF000008000000012000000000AA
:1062B000000000004C380020C05800200000000002
:1062C0000000000010B5064C4FF48071204602F02B
:1062D000F9FE2046034A0449BDE810400DF00ABB10
:1062E00068380020003600205991020070B51D4D1D
:1062F0001D481E4E4FF4614109F064FB28460421FD
:1063000002F0A6F800222846012102F0D1F804216B
:10631000284605F5217402F051FA304602F060FF7C
:106320000621204600F0D6F8204600F0BBF83146A2
:10633000204600F073F805F5307000F085F820462F
:10634000012100F0F9F82046F422202100F0F0F8B5
:1063500020461E2100F0EAF820460021BDE87040EA
:1063600000F04AB978390020F04D0020683800204C
:1063700008B51C200CF0D4FD054B014619600548FA
:10638000C9B202F0A5FDBDE80840642009F06CBD6B
:106390005C3900206838002072DF704773DF704777
:1063A00077DF704738B5054608460C4601F0CEFD4C
:1063B000102803D080280ED0012038BDEB7FA288A2
:1063C0001B2B0EDCE9180320E85448704A80EB7F51
:1063D0000433EB77F0E7A368002BEDD0E97F0D29BC
:1063E00001DD002038BD6A18112068540721517062
:1063F00058681C689968DB68C2F80E30C2F806005D
:10640000C2F80240C2F80A10EB7F1233EB7701208A
:1064100038BD00BF0022C2770270704730B5D1E9A5
:10642000042485B0CD68074B00936946CDE902246A
:106430000195FFF7B7FF0446684601F063FD20466B
:1064400005B030BD1C6F0300F0B589B006462022B0
:106450001348694602F09EF9F37FC2181D2A0CDD2D
:10646000C3F11D04E4B2E2181D2A4FF00005D8BFA5
:10647000082705DD284609B0F0BD04460125092797
:10648000F218601CF05469465770901C22460DF0BB
:10649000D1FAF27F023214442846F47709B0F0BDF5
:1064A0007839002010B50446094802F0BFF9E37FAF
:1064B0001C2B01DD002010BDE2180221E1540A234B
:1064C00090705370E37F0333E377012010BD00BF6A
:1064D00078390020C27F1C2A01DD0020704710B4EB
:1064E00003469C18022098540120A1706070DA7F46
:1064F0000332DA775DF8044B704700BF10B4084AE6
:10650000084C094902620022C0E90A41C0E90C2294
:106510005DF8044B0270C27742628263704700BF2D
:10652000FF0101002000F40020001E00C18570471B
:10653000018581854285704780F82210704700BF31
:10654000F0B5154605EB8503274A89B0044603EBF1
:10655000830300200E469B0011680290CDE9046081
:10656000ADF8143094F821308DF80830CB07CDE920
:106570000600039009D41D491D4BC87FE77F988111
:1065800001201C6099609F801060194902AA04F1E3
:106590002000FFF701FF10B1002009B0F0BD94F812
:1065A00020101448019102F041F90199024601209E
:1065B000FFF7F6FE0028EFD194F820000121FFF745
:1065C000EDFE0028E8D10B4802F088F9628EA6851E
:1065D00095424FF0010094BF521B921A628684F8D4
:1065E000230009B0F0BD00BF60390020383C002016
:1065F0006439002078390020F0B5002361F30F03DF
:106600002D4D044661F31F4389B00363FA212846E8
:1066100002F010F9E68D2949278D0868049706EBEA
:10662000860303EB830300229B000592ADF8143030
:1066300094F8213002928DF80830C307CDE9062284
:1066400003920BD41E4BE27F95F8DF029A8005F58A
:10665000307501221C609D6098810A60184902AA69
:1066600004F12000FFF798FE10B1002009B0F0BD42
:1066700094F820101048019102F0D8F801990246D0
:106680000120FFF78DFE0028EFD194F820000121B2
:10669000FFF784FE0028E8D1074802F01FF9638E57
:1066A000A7859E424FF0010094BF9B1BDB1A6386B7
:1066B00084F8230009B0F0BD78390020603900204B
:1066C0006439002030B50B888D88112B85B00446C5
:1066D00005D0262B33D0102B25D005B030BD436A12
:1066E000EB40DB07F9D52E4801F0DEF80028F4D1A5
:1066F000636A94F82310012202FA05F523EA0503E0
:1067000063620029E9D194F82230002BE5D0238E72
:1067100023486386FA2102F08DF8E28D218D204610
:10672000FFF70EFFD9E7CB7B012BD6D1426A03FAE4
:1067300005F515430023456280F82330CDE70B7A39
:10674000012BCAD1002380F823304FF4FA7114488A
:1067500002F070F8238E5BB1658E95B1A36B0BB11F
:106760009847658E618D2A462046FFF7E9FEB4E71B
:10677000A36B03B19847618D00222046FFF7E0FE2E
:10678000ABE7074802F0BEF8626B002AA5D000957F
:1067900003AB2946284603950CF07CF99DE700BF22
:1067A0007839002075DF704710B44FF010144FF4A3
:1067B00048010022C0E90041C0E902225DF8044B13
:1067C000704700BF014800F075BE00BFAC3C002020
:1067D000F8B500250D4F2E4601E0142D14D0A9B2B6
:1067E000384602F063F8013504460028F5D000F081
:1067F0000FFD0028F1D0204600F014FD022804BF50
:106800000136F6B2142DEAD13046F8BD78390020B1
:1068100070B58E881B480C4694B0314602F046F89D
:1068200023881A2B05D01F2B1CD0102B0FD014B08F
:1068300070BD054600F0EEFC0028F8D0284600F0B8
:10684000EBFC0028F3D1284600F04CFDEFE7694649
:1068500000F030FD0028EAD06A4631460A4801F0CF
:1068600077FAE4E754F8080F61686B4603C33046D3
:10687000BDF80030ADF802306946FFF793FF14B061
:1068800070BD00BF7839002098390020AADF70471A
:10689000ABDF7047ACDF7047ADDF7047AEDF7047EE
:1068A000B0DF704710B5044B044640F8043B01F0DC
:1068B00029FB204610BD00BFD46E030010B5054B68
:1068C000044640F8043B01F01DFB20460BF02AFE75
:1068D000204610BDD46E030070B57B4B04461B6888
:1068E000836196B0043001F041FB94F82E30A0692A
:1068F00013F0320208BF84F82F2013F00C0308BFF6
:1069000084F830300DF10102694601F0F1FA94F893
:106910002F209DF8010015070DD09DF8001002F002
:106920000F0301F00F059D424FEA12126DD243EAA8
:10693000021284F82F2094F8303019070BD003F09E
:106940000F0100F00F058D424FEA131369D241EA9F
:10695000031384F8303094F82E1011F0300340F017
:1069600096800FAD0F93C5E90133C5E903338DF868
:106970003C10AB610021ADF809109DF80A10206AA7
:106980001493012363F342018DF808208DF80A1057
:1069900008B1037873BB94F8263013B104F12603D1
:1069A000129394F831200023D2070893079358BF1D
:1069B000E38AADF81C3004F1080004F12F01CDE9A1
:1069C000050154BF1846E08AADF82000294604F1BD
:1069D0003203E569099505AA0020FFF757FF054630
:1069E00028B994F8253043BB237D002B64D028467A
:1069F00016B070BD10900DF020FF02AB80B2ADF864
:106A00004400ADF846001393C5E74FEA111101D1D8
:106A100091428CD30A462B4643EA021284F82F2077
:106A200089E74FEA101001D1984290D303462946D6
:106A300041EA031384F830308DE7ADF80D009DF87E
:106A40000E2094F82F600C90012363F3420242F66B
:106A500008118DF80E208DF8123004AA0223ADF82B
:106A6000101003A90D90ADF83030ADF834300A9213
:106A700004F124030B910DF102020AA98DF80C60B8
:106A80000E93FFF705FF0028AED00546AFE70F4B8A
:106A90008DF805200FAD1B788DF8043002200023FF
:106AA0000F938DF80600C5E90133C5E90333AB61E7
:106AB0008DF83C1001AB5DE72146054800F0B6FEBD
:106AC000284616B070BD00BF74390020C86E0300A0
:106AD000FC3900202DE9F0410B888E88502B8AB0BC
:106AE0000C46054609D0512B04D18B79012B19D0C6
:106AF000022B26D00AB0BDE8F081CB88428E9A42A4
:106B000035D0EA8E9A42F5D16B6D002BF2D095F814
:106B10004420648A920700F18A8022462946304642
:106B20009847E7E7836C002BE4D090F844205207A5
:106B300001F108076CD43A46294630469847A379B4
:106B4000D6E7A27B042A46D0062A20D0012AD1D13A
:106B5000EB6C002BCED095F84420170704F1080405
:106B600000F1A5802246294630469847C2E7076DC6
:106B7000002FC6D090F84430D90768D404F1120829
:106B8000238A424629463046B847E388B9E7EA6B8C
:106B9000002AAFD0002202A93046CDE90222CDE979
:106BA0000422ADF80C208DF80830FFF779FE2C6D2B
:106BB00054B195F84430D80700F19280B5F84230CE
:106BC000EA6B30462946A047E86B09F075F90023C7
:106BD000C5E90F338EE7E86B002878D0B5F8401090
:106BE000278A628A07EB020C00234FF0020E8C45C5
:106BF000CDE90633CDE908338DF818E039DD40F2F0
:106C00000913ADF81C3006A93046FFF749FE71E7BD
:106C100003211A46009106AB08213846CDE90665E6
:106C200008970BF037FF002889D1AB6C83E703206E
:106C300000211A46009006AB0846CDE90665089487
:106C40000BF028FF00287FF455AF6B6D65E7218AB4
:106C5000069604F11208042300933A46404606AB18
:106C6000CDE9088107950BF015FF00288DD12F6D18
:106C700086E79DF81EC0ADF81C3004F114014CF0FD
:106C800001033844ADF822208DF81E300991ADF88B
:106C900020700CF0CFFE238A618AB5F842200B44A5
:106CA0009BB2934238BF1346A5F84230ABE70321AD
:106CB0001A46009106AB0E212046CDE906650894E0
:106CC0000BF0E8FE00287FF415AFEB6C4AE74FF4B9
:106CD000806009F0D7F84FF48061C5E90F017FE7C4
:106CE000E86BB5F84210069604230093224606ABE3
:106CF000CDE9075009910BF0CDFE00287FF464AF79
:106D00002C6D5BE72DE9F04F0F464FF6FF718F4278
:106D100089B0064615461C4626D0F18A96F82E30D4
:106D20008C4228BF0C46DB0615D40DF1100B8C42AB
:106D300028BF0C464FF00008718EADF810405A463F
:106D40004FF6FF700595ADF81280FFF7A3FD4046A2
:106D500009B0BDE8F08F3948394601F091FD08B11E
:106D6000F18E31B9F18AE0E7344801F093FD07462E
:106D7000D3E7002002230DF1100BADF81200ADF89F
:106D800010305A460DF10E0338460593FFF784FD87
:106D900043F2014398424FD000284AD19DF80E801B
:106DA00008F00108B8F1000F46D02448394601F038
:106DB0007DFD8246A0B300F037FA033883B2002C81
:106DC000C5D0CDF804804FF00009984605E0BDF825
:106DD0000E30E41AA4B21D4444B3504600F038FA11
:106DE000A04503464246594628BF22463846BBB115
:106DF000ADF80E204FF00102738E8DF812200DF1C8
:106E00000E02CDE90625CDF813908DF81790ADF858
:106E10001030FFF743FD0028D9D0504600F022FA89
:106E20004FF00008404609B0BDE8F08FDDF804805F
:106E30008DE700F00108B5E7F18A78E7783900209E
:106E400070B44E68164A86600260D1E90262154B42
:106E5000154D1C7845600261142500220321C0E90C
:106E60000F22C0E91222C0E91422C660C58280F850
:106E7000311080F844200275826102628284C0F879
:106E80002620C0F82A2080F82E20C2614286426364
:106E9000028780F82F4080F8304070BC704700BFF8
:106EA000D46E0300C86E03001C6F03008069704736
:106EB00080F82E10704700BFC182704780F82F10F5
:106EC00080F83020704700BF90F84430016562F3CD
:106ED000000380F8443070470162704751F8322F48
:106EE000026049684160704790F82E3013F010033B
:106EF00001D11846704730B5044685B011480D469B
:106F000001F0BEFC10B1E18E11B9084605B030BDEC
:106F10000DF1060328460024022502AA0393ADF8CA
:106F20000A40ADF80850FFF7B7FC43F2014398421E
:106F300006D008B99DF8060000F0010005B030BD8C
:106F40002046E3E77839002010B490F82E4014F082
:106F5000100403D05DF8044BFFF7D4BE20465DF863
:106F6000044B7047A1DF7047A3DF7047A4DF704771
:106F700000238383704700BF006A00F0E3B800BFBE
:106F8000808B70472DE9F0410B88CE88382B86B076
:106F90000C46054606D0392B66D0362B43D006B0BA
:106FA000BDE8F08100F12407002E36D10A8A384668
:106FB000314602F0D9F994F80C80B8F1010F2CD0C9
:106FC000B8F1040FEBD1286A00F0BCF801465C4828
:106FD00001F06CFC00F028F92A8E053883B2934248
:106FE00028BF1346002B00F09A80218AE289286A84
:106FF000AC8B8DF80D600A44E96A05918DF80C8020
:10700000ADF81230ADF81020ADF80E4000F09AF84F
:1070100003A9FFF7A9FF0028C1D0384602F0BCF948
:1070200006B0BDE8F081006A00F08CF801464448E3
:1070300001F03CFC00F0F8F807466EBB05F12406B1
:10704000E289304604F1100102F08EF92B8E2BB14B
:10705000F81EE38980B20138834255DA304602F0E7
:107060009BF906B0BDE8F0810B7B012B1AD0022BF7
:1070700095D1836B002B92D090F83C208F8892079B
:107080001FD401F11006E2893146284698476189EC
:107090003846FFF76BFF82E705F12407384602F018
:1070A0007BF9BDE7436B002B3FF479AF90F83C20B0
:1070B000D10717D404F11006E289314628469847D3
:1070C0006DE7C989039004F1100603201A46009069
:1070D00003AB3046CDE904610BF0DCFC0028D6D1CF
:1070E000AB6BD0E7E189039004F1100603201A4648
:1070F000009003AB3046CDE904610BF0CBFC0028D7
:107100007FF44DAF6B6BD7E7286A00F01BF86A8EEF
:10711000A98B92B2FFF726FF00289FD13FE7AA8BE9
:10712000286AADF80E2040F20511ADF80C10CDE93B
:10713000043300F007F803A9FFF716FF6DE700BF5F
:1071400078390020808870478FDF704790DF704764
:10715000B1DF7047B5DF704710B5074B03600446D9
:10716000806A09F029FDE06A09F026FD206B08B16C
:1071700009F022FD204610BDEC6E030010B5094B4E
:1071800003600446806A09F017FDE06A09F014FD07
:10719000206B08B109F010FD20460BF0C3F9204622
:1071A00010BD00BFEC6E030070B504460D4692E8BA
:1071B0000300A5800E0CA061A183144DA6771720B3
:1071C0001B2156892560E0809589D089E181D1799C
:1071D0006581012222752274A081617418461946C6
:1071E00026819DF8105008F011FF2946A06228461C
:1071F00008F00CFF4FF4885100234FF6FF72E18234
:10720000E062628223636375204670BDEC6E03000A
:10721000007D7047407D7047C07D113818BF012048
:10722000704700BF407C7047C08870470089704736
:107230004B7D10B44BB11F310C688A888B79046088
:1072400082805DF8044B837170471831F4E700BF0A
:1072500008B56621806A09F033FB003818BF0120A9
:1072600008BD00BF08B500231A461946806A08F019
:10727000FFFE003818BF012008BD00BF818800F163
:107280001F02407C02F0CEB838B50A4605460C46CF
:107290008188407C02F0B2F82146012051F8483F35
:1072A000C5F81F308B888A7985F82520A5F823300A
:1072B000687538BD38B50A4604460D4600F1180118
:1072C000407C02F0E5F8607550B1294651F8483F1E
:1072D000C4F81F308B888A7984F82520A4F82330DD
:1072E00038BD00BF10B5447D24B100F11F01407CC2
:1072F00002F0ACF8204610BD70B50B88113B82B08F
:107300000C460546462B2BD8DFE803F0383B2A2AEB
:107310002A2A2A2A2A422A2A2A2A2A2A50585E64F3
:107320002A2A2A2A2A2A2A2A2A2A2A2A2A2A2A2ABD
:107330002A2A2A2A2A672A942A2A2A2A2A2A2A2A06
:107340002A2A2A2A2A2A2A2A2A2A2A2A2A246A2A63
:10735000752C84000023A8881A461946FFF7F8FE0A
:1073600002B070BD8B79002BFAD1006BAB75002891
:10737000F6D01A46194608F07BFEF1E700230375A4
:10738000EEE74B8903818B894381CB898381E7E7D2
:107390000B7AC375112BE3D0818800F11F02407C6A
:1073A00002F02EF903460028DAD1D4E7002301A920
:1073B0008088ADF80430FFF7C7FED1E70B7A002BC9
:1073C000CED14B7A0374CBE7002211468088FFF7B9
:1073D000BDFEC5E70B89C381C2E74B89C380BFE708
:1073E000006B0123AB750028BAD000231A4619465A
:1073F00008F03EFEB4E7417C164801F04FFAE388FE
:107400000146994228BF194689B2A888E980FFF74A
:10741000A1FEA5E78B79002BA2D0002600231A46F7
:107420001946A86A08F024FE0136A279F3B29A42FE
:10743000F4D895E78B7A002B92D0002600231A46C9
:107440001946E86A08F014FE0136A27AF3B29A42AD
:10745000F4D885E77839002070B58AB086880B4665
:1074600006A84FF42851144605934FF6FF7500F017
:1074700051FD0120CDE90105059B0094314606AA86
:10748000044800F06FF8044606A800F03BFD2046D3
:107490000AB070BDFC39002010B50446043001F07C
:1074A000FFFE034B236000232375204610BD00BF61
:1074B0000100FFFF017D01B1704710B504460430A3
:1074C00001F0F8FE0123237510BD00BF007D704759
:1074D0000B88322B10B504D0332B17D0302B08D0AB
:1074E00010BDCB88DBB1041D2046BDE8104001F083
:1074F00053BFCB88041D002BF6D14B89002BF3D052
:107500000A3120460A2201F02FFFEDE7CB88002B3D
:10751000E9D14A89002AE6D002EB420204E04A8916
:10752000002AE0D002EB82025200041D023292B225
:107530000A31204601F018FFD6E700BFA0DF7047F0
:1075400010B5044600F5F87001F0AAFE2046F822B6
:1075500000210CF097FAF822A01800210CF092FA02
:10756000204610BD2DE9F04782B00546BDF82C60DD
:10757000BDF830402048ADF80460BDF828A0ADF853
:107580000640904699460F4601F090F905F5F875CA
:10759000064603E0FFF74AFE08F066FC284601F0C5
:1075A000E1FE04463046002CF4D10121284601F0CA
:1075B00081FE52464946284601F098FE08F1040132
:1075C000384601AAFFF7BAFF30B1284601F07CFE29
:1075D000204602B0BDE8F0874FF4FA71284601F06A
:1075E0008BFE20EAE074284601F06EFEA4B220462D
:1075F00002B0BDE8F08700BF783900202DE9F04FD8
:107600008F880D8885B0884604463946864801F043
:107610004DF9A5F11003012B814640F2908094F8BA
:1076200054203AB3002633461633502D54F823A085
:1076300069D0512D1AD198F80630B8F808B0022B4D
:1076400053D0BBF1000F11D051466846FFF746FCFE
:10765000BDF800305B4559D0514602A8FFF73EFC0B
:10766000BDF80C305B4551D094F854200136F3B28C
:107670009342D9D394F84C31002B00F0D18004F51B
:10768000A679002604E094F84C310136B34220DD9F
:1076900059F8040FFFF770FCB842F4D1382D03D02D
:1076A000392D01D0362DEED1B8F80AA0BAF1000F6D
:1076B000E9D0D9F800B05846FFF762FC5045E2D156
:1076C00058464146FFF75EFC94F84C310136B34210
:1076D000DEDC112D55D0352D04D1B8F80A30002B41
:1076E00040F08F8005B0BDE8F08F98F80E30062B83
:1076F000A7D1DAF800305046DB6841469847484643
:10770000FFF78AFDB0E7B8F806B09AE7DAF800307C
:107710005046DB68414698474846FFF77DFD002804
:10772000A2D0502DA0D1514602A8FFF7D7FBBDF83B
:107730000C305B4598D14846FFF7A0FD94E72378CD
:10774000002B3FF46CAF0026112D33460CD004EB18
:1077500083033946586803685B6898470136227886
:10776000F3B29A42F3D85AE704EB830339465868D8
:1077700003681B68984701362278F3B29A42F3D81F
:107780004DE7D3B10026334605E094F84C2101368D
:10779000F3B29A4211D904EB8305D5F85001FFF7F3
:1077A000EBFBB842F1D1D5F85001FFF7E1FB013610
:1077B00094F84C21F3B29A42EDD894F8F820002ABC
:1077C00090D000252B4604EB8303D3F8FC0083887C
:1077D000BB420AD00135EBB2934283D204EB830360
:1077E000D3F8FC008388BB42F4D103681B68984738
:1077F000013594F8F820EBB29342E4D305B0BDE82C
:10780000F08F04F5F874B8F80C20204608F1100148
:1078100001F0AAFD204605B0BDE8F04F01F0BCBD67
:10782000112D7FF458AFC8E77839002090F8542024
:10783000272A0CD810B4034602F11604013280F84E
:10784000542043F8241001205DF8044B70470020B9
:10785000704700BF0378132B06D800EB8302013377
:1078600003700120516070470020704778DF704737
:107870007ADF7047054A034692E80300002283E856
:107880000300C3E902221846704700BFF46E0300EC
:1078900008B5FFF7EDFF08B1002008BDFFF7E6FFD0
:1078A000B0FA80F0400908BDF8B500250D4F2E460E
:1078B00001E0142D14D0A9B2384600F0F7FF0135CD
:1078C00004460028F5D0FFF7A3FC0028F1D020469D
:1078D000FFF7A8FC012804BF0136F6B2142DEAD147
:1078E0003046F8BD78390020704700BF8ADF704706
:1078F00030B40D4CC4621F25002250248584A0257D
:10790000C0E91122C0E90F22A0F84650A0F8484073
:10791000006230BC8262028680F838204263C26412
:10792000A0F85020704700BF000180002DE9F04F03
:1079300010468DB016460C4600F008FBC5B2102D5F
:107940004FD0B66807220623A16994F81C900191D4
:107950008DF80D208DF80C30ED080DF10C080DF1AF
:107960000E0A0027B9F1010F0A97CDE90477CDE996
:107970000677CDE90877CDF82B700ED998F800007E
:1079800001994B464A7882420FD00A78D443234467
:10799000013213F0FF031144F4D108F10108C2458C
:1079A000E0D100200DB0BDE8F08F11F8024B013C92
:1079B000E4B2224604A80CF03DF80DF1100B1CB9FE
:1079C000EBE714F0FF04E8D058462A4631460CF0A5
:1079D00023F8641BAB440028F3D101200DB0BDE8AF
:1079E000F08F043603220223AEE700BF2DE9F043F7
:1079F0000B888E88103B87B00D4604460D2B2CD883
:107A0000DFE803F077072B2B2B2B2B2B2B2B2B8437
:107A10002B2E836AF340DB071FD55648FEF7D8FEAE
:107A2000D8B9A36A94F82C20012505FA06F623EAB2
:107A30000606A6628AB994F82D3073B11F2324621A
:107A4000A38404F1200104F14400FFF74FFF20B9A3
:107A5000494800F043FF84F82C5007B0BDE8F0839C
:107A600090F92E2091F91B309A423ADC90F8383088
:107A700001F108080BB3DFF80491002602E0D6B24A
:107A8000B34218D9636BCDF8089003EB061302AA32
:107A900059680391D3E90273414620460593049740
:107AA000FFF744FF074602A800F02CFA94F838309C
:107AB000721C002FE3D09E4213D094F82F30002B7D
:107AC00049D095F82430012B0BD9296A4A78FF2A2E
:107AD00030D00A78D0430344013213F0FF0311443D
:107AE000F4D104F120010020FFF700FF07B0BDE84A
:107AF000F083CB7B022BB0D1836A012202FA06F617
:107B000033430022836280F82C20A6E70B7A012BF6
:107B1000A3D1002580F82C50174800F0F3FE226C0A
:107B2000002A9AD0009502AB2946284602950AF011
:107B3000B1FF92E711F8025B6A1ED2B2022A28BF97
:107B4000022202A80BF076FF012DCAD0228EBDF8CA
:107B500008309A42C5D1E26B002A3FF47EAF012380
:107B60000093404602AB2421CDF808800AF092FF32
:107B700073E700BF88390020783900201C6F0300AC
:107B800046DF70477FDF704780DF704785DF7047D3
:107B900086DF704738B51C460D4603461146284619
:107BA0002246984734B1014600222846BDE83840B5
:107BB000FFF7EABF38BD00BF044A0260032100227C
:107BC000C0E9162201710266704700BF3107100339
:107BD000012070470B7803F0FE03042B01D0002036
:107BE000704770B515468CB00C462022002104A8C1
:107BF0000BF048FF28686968AA68EB686D460FC5F6
:107C00009DF800109DF80F209DF801609DF80E5022
:107C10009DF802008DF80F1023469DF80D108DF889
:107C200000209DF803208DF80E608DF801509DF81E
:107C30000C609DF804508DF80D008DF802109DF831
:107C40000B009DF805108DF80C209DF80A208DF88A
:107C500003608DF80B508DF804008DF805208DF829
:107C60000A109DF8061033F8042FADF810209B7809
:107C70009DF809209DF81D009DF810609DF81F508B
:107C80008DF809108DF806209DF811109DF81E2022
:107C90008DF81D309DF807308DF812008DF81F60AB
:107CA0009DF808009DF813608DF810508DF81E1097
:107CB0009DF81C509DF814108DF811208DF8083097
:107CC0009DF81B209DF81A308DF807008DF81C6078
:107CD0008DF813509DF815608DF81B108DF8142049
:107CE00068468DF815309DF819109DF817209DF8FD
:107CF00018309DF816508DF818208DF816108DF854
:107D000017308DF81A608DF81950FFF739FF627837
:107D10009DF82F309DF82E009DF82D108DF8210034
:107D20009A428DF8221004F1010404D0012080F061
:107D300001000CB070BD6278C3B29A4204F1010434
:107D4000F4D16278CBB29A42F0D10020EFE700BFC5
:107D500008B5137CDB0758BF1C32084602F112013C
:107D6000FFF714FFB0FA80F0400908BDF0B58E8827
:107D70000C4699B005463146404800F097FD2388EF
:107D8000133B0746072B1AD8DFE803F027424E19AA
:107D90001919041B237A33B9637B9B075ED53846D8
:107DA000A91DFFF771FAEA6D4AB1247A0223002176
:107DB0000093084604ABCDE904640AF06BFE19B0E9
:107DC000F0BD2A6E002AFAD0012300210093084654
:107DD00004AB04960AF05EFEF1E7AB1D002405F14A
:107DE0002202049305F13E03CDE90823CDE90544C1
:107DF000CDE90A440794FFF715FA01280CBF2A467B
:107E000022462146304604ABFFF7BCFE19B0F0BD58
:107E100004A9FFF74FFA0346D0B104A93046002366
:107E200012AAFFF7B5FECAE7AB6D002BC7D0A57B42
:107E30000493042304F1080005F001050093104A9F
:107E4000059604AB0621CDE906050AF023FEB6E748
:107E500030461A461946FFF79BFEB0E702A839469E
:107E6000FFF7E6F90298BDF80C209DF80E3085F872
:107E70005430C5F84E00A5F8522090E7783900201C
:107E8000957B0200A8DF7047704700BF30B50446FD
:107E900083B0083000F06AF804F10C010DF106021D
:107EA0000120FFF7EFFF054628B9044B04481C608A
:107EB0002146FFF7CFFC284603B030BD74390020BF
:107EC000FC39002030B44C68C460D1E90241054A55
:107ED000054D0260054A8560C0E90441426030BC3E
:107EE000704700BF046F03001C6F030000001111F6
:107EF00083790B70C3791370704700BF62DF7047DE
:107F000063DF7047704700BF10B504460AF00AFBF4
:107F1000204610BD10B4054C818000220121046070
:107F2000C0E902225DF8044B817170471C6F0300A9
:107F3000002210B4044C046081605DF8044B82712F
:107F40008280C260704700BF1C6F03008379012BE1
:107F50000AD0826832B9C26822B9012B8CBF802056
:107F60000020704780207047102070472DE9F047AF
:107F7000857982B0002D47D1C7680646002F47D0CB
:107F8000102007F07FFF824638460CF056FC441E56
:107F900030B3DFF88490A84604E00134023C1FD4DB
:107FA000102D1DD017F804C0BCF12D0F07EB0402F3
:107FB000F3D099F80030ADF805808DF8043012F850
:107FC000013C8DF804301022002101A88DF805C075
:107FD0000CF0EEFC6B1C023C0AF80500DDB2DFD5AC
:107FE000C6F808A0BAF1000F0ED0B11D5046FFF739
:107FF00085FFB168321D1020FFF782FFB0FA80F0D4
:10800000400902B0BDE8F087012002B0BDE8F0876A
:10801000D0F808A0E6E700BF106F03004BDF704701
:1080200010DF70477CDF70477DDF704760DF70478F
:1080300069DF704761DF704766DF704767DF704751
:10804000704700BF13200BF047B800BF30B5124C8B
:10805000124D83B0D4F86C034FF0FF3108F030FCC0
:108060000028F7D06DB101A8FFF7D8FF0528F1D09F
:108070000028F8D10198831E012BF4D807F068FB83
:10808000F1E701A8FFF7CAFF0528E3D001A8FFF731
:10809000C5FF0528F5D1DDE77839002051F702004A
:1080A0002DE9F04F2DED028B4FF4FA7089B007F0F7
:1080B000E9FEB04E00F1080308EE103A054606F559
:1080C000717706F5217AD6F868034FF0FF3108F092
:1080D000F7FB0028F7D04FF4FA730DF1160128468C
:1080E000ADF81630FFF7A6FF10B10528F3D1EAE787
:1080F000B5F80490B9F1130F00F2348109F1DE03F1
:1081000056F823403CB129462046FFF7F5F89A4837
:108110002946FFF72BFE2B88013B1B2B57D8DFE8A6
:1081200013F0110156005600560056005600560036
:10813000560056005600560056005600560056008F
:10814000B1001C005600560056005600560056005E
:1081500056005600560056009F00DFF830824FF060
:10816000000B58F8040F30B1FFF752F818B10BF1BB
:10817000010B5FFA8BFBB845F3D1BBF1000F06D1C1
:1081800096F874331BB1594613200AF08FFF20462E
:10819000FFF748F8012800F0E780F26962B1022396
:1081A000002195F808C00093084606ABCDF818905A
:1081B000CDF81CC00AF06EFC09F1DE0856F8280064
:1081C00010B103685B689847002346F828302946B9
:1081D0005046FEF777FA69482946FFF707FCB6F8DC
:1081E00076334B452B8800F0B280102B1ED02CB379
:1081F0002046FFF717F8012803D15E482946FFF70C
:1082000073FB2046FFF70EF802281BD05C48FFF7EF
:108210005DF900BB5B482946FFF7F0F9D6F8CC338F
:10822000002B3FF458AF2846984754E7EB7B012BCF
:10823000DDD1AB88A6F87633002CD9D14D4829463C
:10824000FFF752FB50482946FEF7E2FA4C48FFF789
:108250003DF90028DED04A482946FFF739F9D9E729
:10826000D6F8C823002AB2D00223002195F908C00D
:108270000093084606ABCDF81890CDF81CC00AF064
:1082800009FCA4E74FF00008D6F87003CDF8008091
:108290004346424603213D4C09F08CFE54F8040F3E
:1082A00030B1FEF7B5FF18B108F101085FFA88F8A0
:1082B000BC42F3D196F874336BB1B8F1000118BF2A
:1082C000012113200AF0F2FE96F874331BB101214C
:1082D00013200AF0EBFE09F1DE0856F8280028B159
:1082E00003685B689847002346F82830EB7B012B36
:1082F0000BBF96F8563396F85C3396F8574396F8CA
:108300005D43039334200AF00BF9039B009418EEAD
:10831000102A04464946FEF747FF204646F8284003
:10832000FEF780FF012833D0B269002A3FF44FAF37
:10833000012300210093084606ABCDF818900AF0FF
:10834000A9FB44E700214846FFF776FE3FE7102BE4
:108350003FF46CAF112B7FF44AAF4FF6FF73A6F8D2
:10836000763344E70446D6E6F268002A7FF417AF76
:1083700022E700BF7839002098390020583C0020BF
:10838000AC3C0020FC39002088390020EC3C002067
:10839000B268002A3FF41BAF0021009006AB0846EC
:1083A000CDF818900AF076FB11E700BF38B5044607
:1083B000FFF760FA04F11000FEF7F6F904F120006F
:1083C000FFF7FAFB04F18400FFF7BAF804F5217017
:1083D000FEF794F804F53070FEF71CF804F53870D9
:1083E000FFF786FA04F54D70FFF756F81548164961
:1083F000164AC4F858234FF440630025C4F84C33A0
:1084000040F20113C4E9D401A4F85C33A4F85E532C
:1084100004F55E70294650220BF034FB01224FF622
:10842000FF73A4F8605384F86253C4E9DA55C4E9D1
:10843000F255C4F8705384F87423A4F876332046B8
:1084400038BD00BF010A1700030001011700030037
:1084500004290BD8DFE801F00B130B1B0300104BB2
:10846000C0F8523340F20313A0F8563370470D4B57
:10847000C0F8523340F20113A0F8563370470A4B4C
:10848000C0F8523340F20113A0F856337047074B3F
:10849000C0F852334FF48173A0F85633704700BFD1
:1084A000F7006400170003001700020080000600B8
:1084B000F0B5AE4E80F860138DB0336980F861235B
:1084C0000446AB49039303A8FFF7AAFD18B10025A2
:1084D00028460DB0F0BD0990CDE90A00A54A94F8F0
:1084E0005133049209A901208DF82430FFF7A0FD33
:1084F0000028ECD194F861330B90CDE90900181EE7
:1085000018BF012094F860538DF82700049A8DF865
:10851000263009A940208DF82550FFF789FD002855
:10852000D5D194F850130990034661F30003CDE9C7
:108530000A00049A8DF8243009A9A020FFF778FDDD
:108540000028C4D1D4F84C330A900B90049A0993B4
:1085500009A9A120FFF76CFD0028B8D194F8603379
:10856000002B40F0B48094F86133002B47D00023F7
:10857000B4F85873049A0993022509A92320CDE978
:108580000A338DF82450ADF82670FFF751FD00280E
:108590009DD1CDE9090094F86173B4F85A330B907A
:1085A000049A8DF8245009A920208DF82670ADF882
:1085B0002830FFF73DFD002889D10990CDE90A0058
:1085C00094F85C33049A8DF8245009A922208DF880
:1085D0002630FFF72DFD00287FF479AFCDE90900A3
:1085E00094F85D330B90049A8DF8245009A921204A
:1085F0008DF82630FFF71CFD00287FF468AF04A833
:10860000FFF714FD00287FF462AFCDE9070040F0CA
:10861000010307A902208DF81C30FFF70FFD002889
:108620007FF455AF2046FFF733F9054600283FF4A5
:108630004EAF04F12000FFF7CBFA337D4E498DF8A1
:108640000830102202A8FFF7EDFC00287FF43FAFAE
:1086500094F86133002B40F0848003220021012034
:1086600007F092FCC4F8680300283FF430AF05AB74
:108670000326CDE900634149414800234FF4A0623D
:1086800008F038FC32460021012007F07DFCC4F8D8
:108690006C0300283FF41BAF06ABCDE900633949FA
:1086A00039480023C82208F025FC384B4FF48002DB
:1086B0001A60374B00930023184601224FF4807153
:1086C00009F022FCC4F8700300F072FE00E7099084
:1086D000CDE90A00B4F85233049AADF826300125EA
:1086E00009A923208DF82450FFF7A2FC00287FF46D
:1086F000EEAECDE9090094F86073B4F854330B90F2
:10870000049A8DF8245009A920208DF82670ADF820
:108710002830FFF78DFC00287FF4D9AE0990CDE911
:108720000A0094F85633049A8DF8245009A922209F
:108730008DF82630FFF77CFC00287FF4C8AECDE929
:10874000090094F857330B90049A8DF8245009A926
:1087500021208DF82630FFF76BFC00283FF403AF93
:10876000B5E604F11000FEF72DF876E77C6F030004
:108770004180020000360020606F0300746F030028
:10878000A1800200786F03004D80020000E100E04C
:108790004580020000B583B008460DF10601ADF832
:1087A0000620FFF741FC20B99DF8060003B05DF8F4
:1087B00004FB002003B05DF804FB00BF30B41A4A8C
:1087C0000B46054607CA84B001AC03C49DF90400FA
:1087D00022709842194620D09DF905308B421CD05A
:1087E0009DF906308B4218D09DF907308B4214D08A
:1087F0009DF908308B4210D09DF909308B420CD086
:1088000059B19DF90B308B4207D09DF90C308B424A
:1088100003D0002004B030BC7047012085F86213FB
:1088200004B030BC704700BF946F030090F962033E
:10883000704700BF70B5044682B0D0F870030D4693
:1088400009F0E4FB4FF47A7206460023A90DA80252
:108850000AF0C0FE002302460421D4F870030093FE
:1088600009F0A8FB0EB102B070BD0096D4F87003F9
:1088700033463246032109F09DFB02B070BD00BFB4
:10888000132905D8DE3150F8210008B1FEF7C0BC2D
:1088900000207047B0F87603704700BF01290CBF75
:1088A000B0F85203B0F85803704700BF13299ABFBD
:1088B000DE3150F821000020704700BF10B5064C93
:1088C0000021D4F86C0307F06FFED4F86803002190
:1088D000BDE8104007F068BE7839002090F8743386
:1088E00003B9704710B582B0D0F8704308F0F2FCBD
:1088F0000023024600932046012109F05BFB02B0F1
:1089000010BD00BFF0B583B0002405462346D0F863
:10891000700300942246032109F04CFB05F55D76B7
:1089200005F5717756F8040F20B1FEF771FC08B118
:108930000134E4B2BE42F5D195F8743343B1211E3F
:1089400018BF0121132003B0BDE8F0400AF0AEBB10
:1089500003B0F0BD0148FFF729BD00BF7839002002
:1089600000207047D0F8D830988980B2704700BF97
:1089700070B582B0064608461C460192FEF796FA8C
:10898000019905462246D0F8D8000AF043F98442FE
:1089900006D9D5F8F0301BB1211A89B23046984774
:1089A000D5F8E83023B1304602B0BDE87040184732
:1089B00002B070BD08B592B2D0F8D8000AF078F9CC
:1089C00008BD00BF00B583B0D0F8D8000DF1070294
:1089D00000210AF0A9F920B19DF8070003B05DF865
:1089E00004FB4FF0FF30F9E7D0F8D8000AF000B9E7
:1089F000D0F8C030988980B2704700BFD0F8C0006E
:108A00000AF0F6B810B501680C4A8C69944282B03D
:108A10000BD1D0F8D80001220DF107010AF048F976
:108A200040B19DF8070002B010BD01220DF1070111
:108A3000A047F5E74FF0FF30F5E700BFB58902002A
:108A400000B583B0D0F8C0000DF1070200210AF094
:108A50006BF920B19DF8070003B05DF804FB4FF0FF
:108A6000FF30F9E710B550F8181C0D4A8C69944294
:108A700082B00CD0183801220DF10701A04718B1BF
:108A80009DF8070002B010BD4FF0FF30FAE7012259
:108A90000DF10701D0F8C0000AF00AF9EFE700BFB6
:108AA000B58902002DE9F04F50F8183C83B0044618
:108AB0003F48D3F828800F461646FFF7EBFE3D4BA4
:108AC0009845054609D0A4F1180033463A46294690
:108AD000C44603B0BDE8F04F604701463448FFF795
:108AE000E5FE8346002850D004F110094846294687
:108AF000FEF7FAF9002848D094F8CC30002B3CD08F
:108B0000D4F8C800C8B31FFA86FA524639460AF0AC
:108B100081F8D4F8C8309B89804658461FFA83FBF9
:108B2000FEF782FB0338834525DB21482946FFF702
:108B3000BDFE50B3FEF778FB033882B210460192B7
:108B400007F0A0F9834600B3019AD4F8C80059464B
:108B50000AF0AEF80346F0B9584607F0ADF94645BD
:108B600009D9AAEB08039BB207EB0802294648463D
:108B7000FEF7EAF958B1B04609E03A4629464846B8
:108B8000B3B2FEF7E1F90028F5D14FF000084046F6
:108B900003B0BDE8F08F5A4629464846FEF7D4F99F
:108BA0000446584607F088F9002CD8D1EDE700BFFD
:108BB00078390020D58F02002DE9F04150F8183C9B
:108BC00084B004463B489E6A8DF80F10FFF762FEA2
:108BD000394B9E42054609D0A4F1180029460123CD
:108BE0000DF10F02B04704B0BDE8F08101463148F5
:108BF000FFF75CFE064650B304F1100738462946DD
:108C0000FEF772F918B394F8CC30002B49D0D4F8A1
:108C1000C800002845D00DF10F01012209F0FAFF2C
:108C2000D4F8C8309B89804630469EB2FEF7FCFAE5
:108C3000033886420DDA0120D5E732462946384608
:108C4000FEF782F90446304607F036F9F4B9002001
:108C5000C9E718482946FFF729FE0028F7D0FEF794
:108C6000E3FAC21E92B21046019207F00BF90646D3
:108C70000028ECD0019AD4F8C80031460AF018F860
:108C800003460028D9D1304607F016F9B8F1000F95
:108C9000D1D10DF10F02294638460123FEF754F9D0
:108CA000A1E72946384601230DF10F02FEF74CF9E2
:108CB00099E700BF78390020D58F02002DE9F041F7
:108CC00005683B4BAD6A82B09D428DF8072065D1A7
:108CD000044638480E46FFF7E9FD054600284FD008
:108CE00004F1280738463146FEF7FEF8002847D041
:108CF00094F8E430002B47D0D4F8E000002843D0AB
:108D00000DF10701012209F085FFD4F8E0309B89BD
:108D1000804628469DB2FEF787FAC31E9D4244DB7B
:108D200024483146FFF7C2FD50B3FEF77DFA033801
:108D300082B21046009207F0A5F8054600B3009AEB
:108D4000D4F8E000294609F0B3FF68B9284607F0D7
:108D5000B3F8B8F1000F28D10DF1070231463846BB
:108D60000123FEF7F1F80CE003462A463146384667
:108D7000FEF7EAF80446284607F09EF8002CE8D1F2
:108D8000002002B0BDE8F0813146384601230DF1E4
:108D90000702FEF7D9F802B0BDE8F08101230DF11A
:108DA0000702A84702B0BDE8F0810120E9E700BF53
:108DB000D58F0200783900202DE9F04F036883B089
:108DC000044641489E6A88461746FFF763FD3F4BBD
:108DD0009E42054661D101463B48FFF767FD0646C6
:108DE000002855D004F1280948462946FEF77CF8AA
:108DF00000284DD094F8E430002B41D0D4F8E000A6
:108E000000283DD01FFA87FA5246414609F002FF7A
:108E1000D4F8E02003463046B2F80CB01E46FEF708
:108E200003FA1FFA8BFB0338834524DB26482946C7
:108E3000FFF73CFD60B3FEF7F7F9033882B2104646
:108E4000019207F01FF8834610B3019AD4F8E000AE
:108E5000594609F02DFF48BB584607F02DF8B74298
:108E600009D9AAEB06039BB208EB0602294648463D
:108E7000FEF76AF868B13E46304603B0BDE8F08FB1
:108E8000424629464846BBB2FEF75EF80028F2D1BA
:108E90000026304603B0BDE8F08F01463B4642460F
:108EA0002046B44603B0BDE8F04F604703465A463B
:108EB00029464846FEF748F80446584606F0FCFFA7
:108EC000002CCCD1E4E700BF78390020D58F020018
:108ED0002DE9F041036882B004463C489E6A8DF853
:108EE0000710FFF7D7FC3A4B9E420546014663D177
:108EF0003648FFF7DBFC064600284FD004F1280770
:108F000038462946FDF7F0FF002847D094F8E430B2
:108F1000002B47D0D4F8E000002843D00DF1070122
:108F2000012209F077FED4F8E0309B898046304674
:108F30009EB2FEF779F9C31E9E4245DB23482946BF
:108F4000FFF7B4FC50B3FEF76FF9033882B2104656
:108F5000009206F097FF064600B3009AD4F8E000AE
:108F6000314609F0A5FE68B9304606F0A5FFB8F114
:108F7000000F29D10DF10702294638460123FDF7DC
:108F8000E3FF0CE00346324629463846FDF7DCFF96
:108F90000446304606F090FF002CE8D1002002B0D5
:108FA000BDE8F0812946384601230DF10702FDF79F
:108FB000CBFF02B0BDE8F081204601230DF107028E
:108FC000B04702B0BDE8F0810120E8E77839002021
:108FD000D58F02002DE9F04F044683B03848904603
:108FE0001F460E46FFF762FC002856D004F1280900
:108FF000054631464846FDF777FF00284DD094F8E6
:10900000E430002B41D0D4F8E00000283DD01FFA16
:1090100087FA5246414609F0FDFDD4F8E0200346A8
:109020002846B2F80CB01D46FEF7FEF81FFA8BFB7F
:109030000338834524DB22483146FFF737FC60B311
:10904000FEF7F2F8033882B21046019206F01AFFDA
:10905000834610B3019AD4F8E000594609F028FE7F
:1090600000BB584606F028FFBD4209D2AAEB050313
:109070009BB208EB050231464846FDF765FF68B133
:109080003D46284603B0BDE8F08F4246314648468B
:10909000BBB2FDF759FF0028F2D10025284603B0E6
:1090A000BDE8F08F03465A4631464846FDF74CFF6F
:1090B0000446584606F000FF002CD5D1EDE700BF6E
:1090C0007839002070B584B004460E4668461E49C3
:1090D000FEF72EFF69462046FEF7F4FE6846FEF7CF
:1090E00011FF1A4B1A4903F10802002548334FF4C7
:1090F0007A70C4E90635226020626846FEF718FFE0
:10910000694604F12800FDF79BFE6846FEF7FAFE6B
:1091100010496846FEF70CFF694604F18000FDF730
:109120008FFE6846FEF7EEFE2046C4E93A55C4F8C5
:10913000D850A4F8DC60C4F8F050C4F8E05084F8CB
:10914000E45004B070BD00BFC86F0300D86F0300C7
:10915000B86F0300A86F030010B50D4B0446D0F89C
:10916000E00023604033A36110B103685B68984757
:1091700004F18000FDF796FB04F12800FDF792FB57
:109180002046044B40F8083BFEF7BCFE204610BDCD
:10919000E06F0300046F030010B50F4B0446D0F8D6
:1091A000E00023604033A36110B103685B68984717
:1091B00004F18000FDF776FB04F12800FDF772FB57
:1091C0002046064B40F8083BFEF79CFE204609F07F
:1091D000A9F9204610BD00BFE06F0300046F030033
:1091E00070B5044682B0182009F09AF900220546AD
:1091F000012109F0DDFC2846B4F8DC10C4F8D85091
:1092000009F0E8FC2046FEF741FE054610B128466D
:1092100002B070BD01211E48FFF740FB04F1280693
:1092200003461021304601961E46FDF741FE2A46B0
:1092300001981121FDF742FE01983146FDF73CFEF1
:1092400001981449FDF748FE0198FDF745FB0546D6
:109250000028DCD104F180000C210190FDF728FEEC
:1092600001980D490122FDF72FFE11220198294690
:10927000FDF724FE01983146FDF71EFE01980749CF
:10928000FDF72AFE019802B0BDE87040FDF724BB4F
:1092900078390020A06F030071890200A46F0300D9
:1092A000002201214270C0E901220170C281828145
:1092B000704700BF10B50446017001B110BD0A200F
:1092C00006F0A4FE606010BD037810B5044643B1FB
:1092D000002301226370C4E90133E381A38122707A
:1092E00010BD406807F068FCF2E700BF0023816012
:1092F0008281C381704700BF037870B504460D4674
:10930000B3B94668012363704FF47A720023A80250
:10931000A90D0AF05FF90146304607F0D1FA98B975
:10932000237800264FF0FF356670A3B9284670BD3C
:1093300003220021012006F027FE06466060002877
:10934000E0D14FF0FF35F1E7E58923780026ADB293
:109350006670002BEAD0606807F02EFC6660284635
:1093600070BD00BF4078704738B50446808982429E
:1093700028BF0246154619B1A0680AF05BFBA08918
:10938000E389A26815FA83F3401B9BB22A44A081AB
:10939000E381A260284638BD406820B100231A4608
:1093A000194606F065BE7047B1DF7047B2DF7047FF
:1093B00008B50F4806F074F80E490D4800F054FB4C
:1093C00028B10D490A4800F04FFB50B108BD0949CA
:1093D000074800F065FB0849054800F045FB0028F8
:1093E000F4D1BDE808400449014800F059BB00BF72
:1093F000483D00203C7003005070030070B586B0FB
:109400000E4603230021054614460093044A0496A1
:10941000084603AB0395059409F03CFB06B070BD0C
:10942000E996020070B586B00323144606460D4641
:109430000093104603AB044A05940721CDE9036568
:1094400009F028FB06B070BD1998020030B50A4635
:1094500091B089795379039111790293D378094DA9
:10946000094C019100939378527801280CBF29464A
:10947000214604A80BF08CF904A9044800F068FB0D
:1094800011B030BD6470030094700300483D0020AB
:109490002DE9F043D1B00B78032B04AF0D46044601
:1094A000904668D95A08022A5ED14F4A4F49504B1C
:1094B000DFF84891012818BF11460022381D00F03E
:1094C0001FFD4B4907F1680000F050FC07F1CC0686
:1094D00011E00246414607F1680000F039FD08F14D
:1094E000380229464846FEF775FB044678BB07F16B
:1094F000680000F0A3FD0022391D304600F0D0FDC9
:1095000007F1D0000DC8D7F8DC10D7F8E4407B672E
:10951000D7F8E83097F8E0C0F8663A67B9674122B3
:1095200007F1EC0107F18800C7E9204387F87CC008
:109530000AF080FA07F1680000F0ACFD044607F17C
:10954000680044B100F0B2FB5028D0D1C1E707F168
:10955000680000F073FD381D00F070FD204607F52F
:109560009A77BD46BDE8F0830024204607F59A7738
:10957000BD46BDE8F083E9468CB08979AB786A785E
:10958000039169790291297901911A4E1A49E87873
:10959000009004AD012C08BF3146284607F1CC06E7
:1095A0000BF0F6F81249304600F0E0FB2946304651
:1095B000002200F089FC044650B90024304600F037
:1095C0003DFD2046CD4607F59A77BD46BDE8F083C0
:1095D000304600F06BFB021EEFDD92B24146304692
:1095E00000F0B6FCEAE700BF507003003C700300D7
:1095F000483D0020647003009470030098390020F7
:10960000F0B5ADB095799378344E14465278039501
:109610006579029594F804C0CDF804C0304DE47823
:10962000009404AF0C4601280CBF3146294607F1CF
:109630000C000BF0ADF82B4B07F10C0107F13C00CF
:10964000002200F05DFC07F13C0000F023FD40B972
:10965000002407F13C0000F0F1FC2046A437BD4691
:10966000F0BD07F13C0000F021FB051E08DD07F10D
:109670003C0000F0ABFC291807F13C0000F088FC2E
:1096800007F13C0000F012FB051E08DD07F13C006D
:1096900000F09CFC291807F13C0000F079FC07F170
:1096A0003C0000F003FB0028D2DDC31D23F00703BC
:1096B0006D46ADEB030D82B204A907F13C00C7E98A
:1096C000001200F045FC2046D7E900120323FFF703
:1096D0006BFEB0FA80F46409AD46BAE7647003002B
:1096E00094700300483D0020F0B5B5B092F84E509C
:1096F00092F84A30434E144692F84920039594F864
:109700004D50029594F84C50019594F84B500095AB
:109710000D463D4904AF012818BF314607F12C0022
:109720000BF036F8394807F12C0100F09DF96E4630
:1097300000284AD1354B07F12C0107F15C000122CA
:1097400000F0DEFB07F15C0000F0A4FC18B9C437A0
:10975000B546BD46F0BD502107F15C0000F0D4FADB
:109760005022214607F15C0000F00CFA0023294644
:1097700027487B61C7E90333C7E90633C7E90833E4
:10978000BB62FFF793F807F10C012022FDF764FE9E
:109790003B7B03B307F10C000BF04FF8013082B2B2
:1097A000C1B207F15C007A6000F0AEFA7A6807F1A6
:1097B0000C0107F15C0000F0E5F907F15C0000F036
:1097C0003DFCC437B546BD46F0BD07F12C010F483E
:1097D00000F0BEF9AEE794F8491094F84D3094F8D3
:1097E0004E20039194F84A10029194F84B10019185
:1097F00094F84C10009107F10C0006490AF0C8FFDC
:10980000C8E700BF9470030064700300483D002067
:1098100078390020C47003002DE9F043ADB00C4648
:1098200004AF0021032306461546204607F10A022D
:109830007981FFF7BBFD7B89E84623B9A437C5468C
:10984000BD46BDE8F0830733DB08A8EBC3039D46A4
:109850000DF11009204607F10A0249460323FFF7DC
:10986000A5FD04460028E9D1A979AB786A7803916F
:1098700069790291297901913D483E49ED78009539
:10988000012E08BF014607F10C000AF081FF3A4B98
:1098900007F10C0107F13C00012200F031FB07F158
:1098A0003C0000F0F7FB0028C8D0214607F13C003F
:1098B00000F06EFB07F13C0000F0F8F9041E08DD33
:1098C00007F13C0000F082FB211807F13C0000F09A
:1098D0005FFB07F13C0000F0E9F9041E08DD07F129
:1098E0003C0000F073FB211807F13C0000F050FB36
:1098F00007F13C0000F0DAF97C8980B2A04213D075
:10990000E1B207F13C0000F0FFF92246494607F1B9
:109910003C0000F037F907F13C0000F08FFBA43762
:10992000C546BD46BDE8F083E31D6D46DB08A5EBEB
:10993000C3039D4604A9224607F13C00796000F06C
:1099400007FB79687A8948460AF066F808B9AD4697
:10995000E1E707F13C0000F055FB7B89DB43191878
:1099600007F13C0000F014FBAD467C89C8E700BF5E
:109970006470030094700300483D0020704700BFEE
:1099800010B5044608F0CEFD204610BD38B50A4B90
:1099900004460D46442240F80C3B00210AF072F8C0
:1099A0000023A560237104F15401012006F010FD8D
:1099B0002065204638BD00BFEC70030070B504463A
:1099C0000E46006D4FF0FF3106F07AFF257955B94C
:1099D0008EB1A660314604F10C0005F0BBFBB0FA75
:1099E00080F56D0925710023206D1A46194606F091
:1099F0003FFB284670BDA668002EF4D0EAE700BF02
:109A000070B505464FF0FF31006D06F059FF2B7918
:109A100093B1002305F10C062B71304605F0AEFC26
:109A2000044680B10023286D1A46194606F020FB33
:109A3000B4FA84F0400970BDA96805F10C0004F087
:109A400029FF0446EEE7A968304604F023FF0446E8
:109A50000028E7D1A968304605F07CFB04460028C1
:109A6000E0D101232B71DDE730B5044695B00D46FA
:109A7000006D4FF0FF3106F023FF294601AA04F1E3
:109A80000C0004F0DBFC002302461946206D14464E
:109A90001A4606F0EDFAB4FA84F0400915B030BD6C
:109AA0002DE9F04F83B00B7800AF2F2B78600CBFFF
:109AB0004C1C0C4606460D46006D4FF0FF3106F07B
:109AC000FFFE06F10C084FF0000917E0ADEB030DA7
:109AD00068468B4500F8019BEA4601DD09F0D2FF9C
:109AE00029465A46504609F0A5FF5146404603F024
:109AF0000BFD08B1113028D10134B54620462F2185
:109B00000AF075FEA0EB050B0BF108036E46002171
:109B1000044623F007035A460028D7D12946404679
:109B200003F0F2FC60B901247A680023106D194635
:109B30001A4606F09DFA20460C37BD46BDE8F08F68
:109B4000113014BF00240124EEE70024B546EBE7F2
:109B500038B504460D46006D4FF0FF3106F0B0FEFB
:109B6000294604F10C0004F0C1FC0023024619460A
:109B7000206D14461A4606F07BFAB4FA84F04009C8
:109B800038BD00BF036970B504460D46186D4FF02F
:109B9000FF31164606F094FE237D4BB10025226965
:109BA0000023106D19461A4606F062FA284670BD69
:109BB0002069A1692A4633460C3003F0F3FF20EAFE
:109BC000E075ECE770B50369044682B0186D4FF09C
:109BD000FF3106F075FE267D4EBB2069A1690C3071
:109BE00004F01EFC05462069A1698DF80760012379
:109BF0000DF107020C3004F05FFB00282069A16919
:109C0000C8BF9DF807602A4600F10C004FF0000322
:109C1000D8BF4FF0FF3604F0D3FB22690023106D4C
:109C200019461A4606F024FA304602B070BD4FF0CD
:109C3000FF36F2E738B5036904464FF0FF31186D7F
:109C400006F03EFE237D4BB1002522690023106DF6
:109C500019461A4606F00CFA284638BD2069A16953
:109C60000C3004F0DFFB05462069A1690C3004F0DC
:109C7000D7FB2D1AE9E700BF036910B504464FF082
:109C8000FF31186D06F01CFE237D43B122690023CD
:109C9000106DBDE810401A46194606F0E9B9206972
:109CA000A1690C3004F0E4F9F0E700BF30B50369B6
:109CB000044683B0186D4FF0FF3106F001FE257D9C
:109CC00055B122690023106D19461A4606F0D0F9E5
:109CD0004FF0FF3003B030BD2069A1690DF10702DC
:109CE00001230C3004F0E8FA23692A460446294689
:109CF000186D2B4606F0BCF9002CCCBF9DF8070070
:109D00004FF0FF3003B030BD30B50368164A5B68D2
:109D100083B093428DF807101ED1036904464FF0BB
:109D2000FF31186D06F0CCFD237D53B1002522696B
:109D30000023106D19461A4606F09AF9284603B01A
:109D400030BD2069A1690C3001230DF1070203F039
:109D500029FF20EAE075EAE701220DF107019847A3
:109D60000546284603B030BD859B020030B4074C41
:109D7000016100224FF47A75C0E900428560C0E9B4
:109D8000062230BC027580F820207047087103005D
:109D9000F0B5836997B004460D46164693B1077D2A
:109DA000006919460C30002F45D003F0ADFDA069C5
:109DB00006F082F8E0690023A36108B106F07CF8A0
:109DC0000023E361206903AA0C30294604F036FB26
:109DD00098B99DF80C30112B34D02C2006F052F895
:109DE0000146A06130B120692A460C3003F064FDC1
:109DF000002839D0002017B0F0BD0230FAD1012E72
:109E0000F8D1382006F03EF80146A0610028F1D0D4
:109E1000206940F203130C302A4603F011FE064677
:109E20000028E7D12069A1690C300223324604F0F2
:109E3000C7FA267509E004F09DF9A06906F03CF820
:109E4000A761BFE7EEB1012E3AD02F2128460AF0D4
:109E50000FFD203400B1451C2946204640220AF05F
:109E6000F4FC012017B0F0BD0123237528460AF049
:109E7000E4FC013006F006F82946E0610AF0C4FC73
:109E8000E3E701233820019305F0FCFF019BA0616B
:109E900001460028AED020692A460C3003F0D0FDE0
:109EA0000028A7D1012E02D000232375CDE7236916
:109EB000A169024603F10C00022304F081FAF3E7E2
:109EC00040F20313DEE700BF30B5036983B00446F8
:109ED0000D46186D01924FF0FF3106F0F1FC019A2A
:109EE00029462046FFF754FF216900230246144605
:109EF000086D1A46194606F0BBF8204603B030BD7F
:109F000070B504460025C4E906551048236182B0A7
:109F1000206084F820504FF47A700E46A0604FF015
:109F2000FF31186D65602575019206F0C9FC019A34
:109F300031462046FFF72CFF22692B46106D29463B
:109F40002A4606F095F8204602B070BD087103005D
:109F5000036970B504460D46186D4FF0FF31164683
:109F600006F0AEFC237D4BB1002522690023106D65
:109F700019461A4606F07CF8284670BD2069A1698A
:109F80002A4633460C3004F097F90546EDE700BF4A
:109F900038B5036904460D46186D4FF0FF3106F0E1
:109FA0008FFC237D4BB1002522690023106D1946DB
:109FB0001A4606F05DF8284638BD2069A1692A4690
:109FC0000C3004F0FDF9C543ED0FEDE738B503693A
:109FD00004464FF0FF31186D06F072FC237D4BB143
:109FE000002522690023106D19461A4606F040F834
:109FF000284638BD2069A1690C3004F011FA0546E5
:10A00000EFE700BF38B5036904464FF0FF31186D24
:10A0100006F056FC237D4BB1002522690023106D0C
:10A0200019461A4606F024F8284638BD2069A16969
:10A030000C3004F0F7F90546EFE700BF036970B58F
:10A0400004464FF0FF31186D06F03AFCA16981B16A
:10A050002069257D0C30ADB103F056FCA06905F0F8
:10A060002BFFE0690023A36108B105F025FF002361
:10A07000E36122690023106DBDE870401A4619465D
:10A0800005F0F6BF04F076F8A06905F015FFA561AC
:10A09000EFE700BF8069003818BF0120704700BF9C
:10A0A0002DE9F04F95B00B6906460C46186D4FF040
:10A0B000FF3100AF904606F003FC002320693375A2
:10A0C00086F82030227D2B4930614FF47A70C6E942
:10A0D0000013C6E90633B060DAB342F62E65206994
:10A0E000A1690C303A1D03F023FC012831D1BB8952
:10A0F0002E2BF4D0AB4238D0D4F81C9048460AF04E
:10A100009CFB054607F10C000AF097FB2B1809335E
:10A1100023F00703EA46ADEB030D68466A1C494687
:10A1200009F088FC99F800302F2BEB4602D199F802
:10A1300001301BB1104B1B882BF8053007F10C01C7
:10A1400058460AF045FB424659463046FFF720FE86
:10A15000D54622690023106D19461A4605F088FF7E
:10A1600030465437BD46BDE8F08FBB7B002BB6D0E0
:10A17000C2E700BF08710300FC7003002DE9F04F37
:10A1800085B0DDE90E4B109F81460D4690461E4678
:10A19000002F63D0B8F1000F03D0D8F80030B342DD
:10A1A00049D0D9F800002B689E422BD04369B4FBFC
:10A1B000F3F203FB1242BAB9BB4215D8B7FBF3F274
:10A1C00003FB127AA7EB0A0300930393436822462A
:10A1D0001F4631465B46B84788B9039B57469B44A8
:10A1E0001C44002FD6D139E00093A21AC5E90062C1
:10A1F000D0F804A0AB683146D0470028CAD005B0DB
:10A20000BDE8F08F69684369A142D0D8CA18A2425C
:10A21000CDD9A2EB040ABA45AB6828BFBA46611A89
:10A22000524658461944BF1A544409F003FCD3441B
:10A23000002FAFD112E0D8F80430A342B1D8D9F83A
:10A24000000082691A44A242ADD9A2EB040ABA45C1
:10A25000D8F8081028BFBA46E31AE1E7002005B095
:10A26000BDE8F08F2DE9F04F074687B00D4672B379
:10A270000368D1F800B090469A69D1E901104AB359
:10A28000013A01F101098618A9EB0009441E4FF0BB
:10A29000010A08E014F8012F9DF817309A4223D1E3
:10A2A000A6423B6814D01A6A934509EB040320D2F6
:10A2B0000DF11702CDE90032CDF808A05B4600226F
:10A2C00041463846FFF75AFF0028E3D009DB3B68D8
:10A2D000A8689A69FF2109F0D5FB4FF0FF332B6086
:10A2E000002007B0BDE8F08F6FF0330007B0BDE885
:10A2F000F08F034B034A0448122109F001FB00BF11
:10A30000247103004C730300447103002DE9F04FE6
:10A3100087B0DDF840A00592002B64D0D0F8009003
:10A320008B46D9F81C105C1EA1F10808444507466D
:10A3300051D3B4FBF8F0013809F064F9D04500F1CD
:10A340000200A4EB8003B3FBF8F560D8BAFBF8F089
:10A35000013809F057F9861CAAEB8606B6FBF8F619
:10A36000304609F04FF9AAEB800006FB180AB54207
:10A3700043D9D9F82020059B4FF004090DF11408AA
:10A380000BE0012B45D93A68126A934241D801216A
:10A3900001FA04F42D1BB54230D9AC1BB4FA84F495
:10A3A00095FAA5F1C4F11F04B1FA81F18C4228BFDE
:10A3B0000C4693424FEA840132D20091CDE90189E3
:10A3C000002259463846FFF7D9FE059B0028D8D011
:10A3D00007B0BDE8F08FD04588BF1346BAFBF8F050
:10A3E0000CD80025B4E711994FF0FF320A60129A99
:10A3F0001846136007B0BDE8F08F059B119A1360F3
:10A40000129B0020C3F800A007B0BDE8F08F002623
:10A41000ADE7064B064A07484FF48F6109F070FA22
:10A42000054B064A0348122109F06AFAC07103007D
:10A430006C73030044710300247103004C73030028
:10A440002DE9F04F89B00746149C129D8B46924629
:10A450001E46002C55D0DBF80030B3425CD00133EF
:10A4600040F0A18038688269B5FBF2F302FB135318
:10A47000002B4AD1A24248D8B4FBF2F302FB1343AB
:10A480000593E31A009304938468139B2A4631468C
:10A49000A04700287ED1BAF1000F29D0049B3BB31E
:10A4A000139B5C1E049B04EB0309139B05F101083D
:10A4B000A8EB030807E014F8012F9DF81F309A421B
:10A4C00066D14C4514D03B681A6A964208EB0403E7
:10A4D00063D2012202920DF11F02CDE900325146F2
:10A4E000334600223846FFF749FE0028E3D051DB0F
:10A4F000139A049B059C1146194413911D44002C8A
:10A50000A9D1002009B0BDE8F08FEB1ACBE90063B8
:10A51000DBF80030B342A2D1DBF80410A9429ED888
:10A520003A6892690A44AA4299D9A2EB0508A04563
:10A53000DBF8080028BFA046691A08444246139970
:10A5400009F078FA38681399826945444144B5FBAB
:10A55000F2F302FB1353A4EB08041391002B7FF4D6
:10A5600078AFDBF800104B1C3FF473AF0092DBE9CF
:10A570000123D0F80880C04760B952465946384692
:10A58000FFF770FE00283FF464AF09B0BDE8F08F1C
:10A590006FF0330009B0BDE8F08F064B064A07485C
:10A5A000122109F0ADF9064B064A0448B72109F01B
:10A5B000A7F900BF247103004C730300447103002A
:10A5C000EC7103005C7303002DE9F04F0446D2E9FF
:10A5D000003091B04FF0010B0A9300230B900691CD
:10A5E00004F114080DF128090593236859F8045B58
:10A5F0001B6A9D427BD210230DF1300A0022CDE967
:10A6000001A300922B4641462046FFF7B7FD0028E4
:10A6100039D1059B002B60D10D9B23F00043132BF8
:10A620004FD92268D26993424BD84FF0FF3309A823
:10A6300010225146099304F0BFFE0D9B23F0004306
:10A64000102B28D0CDF81C9010260DF12307994629
:10A6500007E001360122394609A804F0ADFEB145F4
:10A6600017D023681B6A9D4241D20123CDE90173B3
:10A6700000962B46002241462046FFF77FFD00282A
:10A68000E7D0DDF81C9010F1340F1AD011B0BDE8FE
:10A69000F08FDDF81C90099B9BB99AE80F000BF036
:10A6A000010610AF07EB860C069F1026FE603E46A3
:10A6B0007D601C365CF8185CBD6086E80F000123E5
:10A6C0000593BBF1020F0FD1059B002B14BF002097
:10A6D0006FF0330011B0BDE8F08F069A0C9BD26981
:10A6E0009B1A002B98DAECE74FF0020B7DE7034B47
:10A6F000034A0448122109F003F900BF2471030042
:10A700004C730300447103004368013337D02DE9D3
:10A71000F0438368013383B0044628D015460E46C3
:10A720004FF000084FF001096A462946CDE900893B
:10A73000FFF74AFFE0B905F124086B6A591C16D0EF
:10A74000AF6A7A1C13D0D6F800C09C4513D0D6F857
:10A7500004E0BE450FD073454246294620460AD044
:10A76000BC4508D0FFF730FF0028E6D000E000200D
:10A7700003B0BDE8F083012003B0BDE8F083002002
:10A78000704700BF2DE9F041D1F820C00C46C968E0
:10A790002CF00043043B01F10C069E4284B00546B8
:10A7A00017461FD904F12408102612E0424621461C
:10A7B0002846FFF709FF90B9D4F820C0A169E660E8
:10A7C0002CF00043043B14311B2BA1614FF010010E
:10A7D00008D8BCF1000FE9DB39606FF0010004B06C
:10A7E000BDE8F0812A46636852F8140B066AB3424A
:10A7F00007F104001AD20C26CDE90010029611468A
:10A8000028460022FFF7BAFC0028E8D17B79BA7904
:10A81000FD79A16904331344E2683A602B441A4479
:10A820000B44E260A36104B0BDE8F081024B034A2F
:10A830000348122109F064F8247103004C730300EB
:10A8400044710300F0B593B000260D46012707A917
:10A850006A46CDE900670446FFF7B6FE064610B12A
:10A8600021E0831C22D1109B01331CD0119B0133AA
:10A8700019D010AA07A92046FFF7A6FEB0B903AA6F
:10A8800007A92046FFF77EFF0028EAD19DF9103086
:10A89000002B4FF00802294605A8F0DB09F0BCF8B0
:10A8A0000028ECD10126304613B0F0BD06463046F4
:10A8B00013B0F0BD2DE9F047164600240122C6E989
:10A8C0000942824688461D4606F124094A46314619
:10A8D0005046FFF779FE074668B92A46314650468A
:10A8E000FFF750FF50B1831C1FD1736A013302D0B0
:10A8F000B36A0133EAD13846BDE8F0872C7904F019
:10A900007004202CE9D1AB68D8F80020934208D01D
:10A91000E868D8F80410884203D08B4201D0824204
:10A92000DBD101273846BDE8F0870746E3E700BFE3
:10A930002DE9F04F2DED028B8DB090461C4609930A
:10A9400040F622032268C8F804300892D0E90123B7
:10A95000724EC8F8082082468946C8F80C3000F1CB
:10A96000140B089D3146284609F096FF2B460344F8
:10A97000044631461846059309F04EFF012804901D
:10A9800000F0B080022804D1059B1B782E2B00F02C
:10A99000B280DDE90423134408931F4601243146A5
:10A9A000384609F079FF07443846314609F034FF4C
:10A9B00078B1022802D001340744F0E73B782E2B0F
:10A9C000F9D17B782E2BF6D1013CF5D1BB1C089335
:10A9D000C7E7059C207800285FD0099B1C6098F889
:10A9E0000430222B40F08D8008F108031A464946B6
:10A9F000504608EE103AFFF7E7FD00284DD1049BC2
:10AA0000013B23440793424649465046FFF7BAFEAE
:10AA1000002842D198F8042002F07F03112B01D0C6
:10AA2000222BF0D198F8073004998B42EBD1D8F85B
:10AA3000003098F8051098F80650D9F804700433DF
:10AA40000B441D44049BA3B3059BCDF8188001352E
:10AA5000DDF81C80ED1A5C1E07E014F8012F9DF84C
:10AA60002F309A421ED144451FD0DAF800301A6ABE
:10AA7000974205EB040347D2012202920DF12F0207
:10AA8000CDE9003259463B4600225046FFF776FB9F
:10AA90000028E2D0DDF8188009DA0DB0BDEC028B99
:10AAA000BDE8F08FDDF81880ADE7DDF8188098F884
:10AAB000042013067FF555AFDAF8043001330CD0CB
:10AAC000DAF80830013308D018EE101A5046FFF7B4
:10AAD000B9FE00281ED198F8042002F07F0288F801
:10AAE00004203EE72B5D2E2B7FF453AFDDE90423DA
:10AAF0001344089335E7059B5B782E2B7FF449AF11
:10AB0000F4E76FF01300C8E7054B064A0648122128
:10AB100008F0F6FEC1DB6FF00100BEE7FC70030039
:10AB2000247103004C730300447103002DE9F04FBE
:10AB30008B469DB00BF1040304930BF10C03CDE99C
:10AB4000053B016B04464FF001080025D4E90D30A8
:10AB500010E05A09E66B01385F1CA063676356F882
:10AB600022C003F01F0208FA02F212EA0C0F00F0F2
:10AB700027813B469942ECD1002800F0F2812268FF
:10AB8000E36AD2E908621944904228BF1046B1FB3B
:10AB9000F6F306FB13112063E162E06B6563D208F4
:10ABA000002108F06FFF6368013300F05781A3684C
:10ABB000013300F05381002201230025CDE9082351
:10ABC00004F1140701222E46D4F800C0E16ADCF833
:10ABD0002030206B591A0E44B6FBF3F503FB1565C4
:10ABE000854210D26909E26B05F01F0552F8213049
:10ABF00008FA05F51D4342F82150DCF82030E16ADF
:10AC0000099A206B591A0A44B2FBF3F103FB112392
:10AC100083420AD25809E16B03F01F0351F8202048
:10AC200008FA03F3134341F8203008AA11A920467B
:10AC3000FFF7CAFC002840F00E810C25149A24E08E
:10AC40002068129B006A834280F01A820EA9CDE927
:10AC500000210295002239462046FFF78FFA00288E
:10AC600040F0F9809DF839209DF83A309DF83B601E
:10AC7000149904321A449DF83830324403F07003BA
:10AC80000A44102B149200F0EB80199B23F0004330
:10AC9000043B02F10C009842D2D9DDE91A62701C23
:10ACA000CDE9086201D0511C8ED1D4F80C904D46EC
:10ACB000B9F1000F00F0DE81EB69DA0340F1568153
:10ACC0006F69002F00F05281D4F800A0DAF81C6000
:10ACD000013F083EB742C0F0CF81B7FBF6F0013824
:10ACE00008F090FC0230A7EB8002B2FBF6F6D4F835
:10ACF00030E0E16A2B69079505F12C000546DAF88A
:10AD00002020704604F114098E4601469818A0EBE5
:10AD10000E0EBEFBF2F002FB10E28A420AD2570985
:10AD2000E06B02F01F0250F8271008FA02F20A4303
:10AD300040F82720002E00F01781DAF8202006F0D6
:10AD40000107C7F1020A93424FEA8A0080F0988116
:10AD50000BA90022CDE90110009249462A4620465F
:10AD6000FFF70CFA002876D10AF1FF3CD4F800A0D6
:10AD700013E0BBFBF2F302FB13B38B424FF0010075
:10AD800014D24FEA531EE16B03F01F0351F82E203B
:10AD900000FA03F3134341F82E30D4F82CE0DAF82C
:10ADA00020200B9B216BA2EB0E0B9B446045E0DB4C
:10ADB0001CAB03EB8C0C023F5CF8443C3E44A5E723
:10ADC0002068E26A016A1344B3FBF1F201FB12331B
:10ADD000049A42F8043BD4E90C139942049207D137
:10ADE0000FE0A26B0133013A8B42C4E90D3208D067
:10ADF0005D0903F01F0256F8255008FA02F22A42B4
:10AE0000EFD1DDE9043293427FF49FAEDDF818B054
:10AE1000006ADBF8043083420BF11C0204F11401D8
:10AE200080F02E8104250192002220460295009296
:10AE3000FFF7A4F9002840F08B80DBF81C304FF0BE
:10AE4000FF32CBE90922142001331021CBE907306E
:10AE5000CBF80C1000201DB0BDE8F08F216B75E61B
:10AE6000109B002B3FF411AFD4F800A0DAF81C605F
:10AE700003F1FF3BA6F10809CB4570D3BBFBF9F00A
:10AE8000013808F0BFFB861CABEB8606B6FBF9F673
:10AE90000F9BE16ADAF82020D4F830E09818401AC5
:10AEA000B0FBF2F102FB110272450BD24FEA521CC9
:10AEB000E16B02F01F0251F82C0008FA02F2024383
:10AEC00041F82C20002E3FF4B9AEDAF8202006F02D
:10AED0000109C9F1020A93424FEA8A0080F0D0804A
:10AEE0000BA90022CDE90110009239462046FFF758
:10AEF00045F90028AFD10AF1FF3CD4F800A013E0D7
:10AF0000BBFBF2F302FB13B373454FF0010014D205
:10AF10004FEA531EE16B03F01F0351F82E2000FA95
:10AF200003F3134341F82E30E16ADAF820200B9B3B
:10AF3000D4F830E0A2EB010B9B446045E0DB1CAB96
:10AF400003EB8C0CA9F102095CF8443C4E44A5E7E4
:10AF500010F1340F3FF471AF1DB0BDE8F08F06461D
:10AF600096E76FF01B0076E7079DEB699B037DD5A5
:10AF70002F6A002F7AD0D4F800A0DAF81C60013FC5
:10AF8000083EB7427AD3B7FBF6F0013808F03AFB37
:10AF90000230A7EB8003B3FBF6F6D4F830E0E16AA9
:10AFA0006B6A079505F12C000546DAF820207046FB
:10AFB00004F114098E4601469818A0EB0E0EBEFB54
:10AFC000F2F002FB10E28A420AD25709E06B02F06B
:10AFD0001F0250F8271008FA02F20A4340F827200F
:10AFE000002E42D0DAF8202006F00107C7F1020A4D
:10AFF00093424FEA8A0043D20BA90022CDE9011007
:10B00000009249462A462046FFF7B8F800287FF408
:10B0100022AF0AF1FF3CD4F800A013E0BBFBF2F32F
:10B0200002FB13B38B424FF0010014D24FEA531EC0
:10B03000E16B03F01F0351F82E2000FA03F31343D2
:10B0400041F82E30D4F82CE0DAF820200B9B216B4D
:10B05000A2EB0E0B9B446045E0DB1CAB03EB8C0CBE
:10B06000023F5CF8443C3E44A6E7079D2D68002D56
:10B070007FF422AE216B68E5002638E600268CE7D7
:10B08000024B034A0348122108F03AFC24710300E2
:10B090004C730300447103002DE9F04F2DED028B3A
:10B0A0009BB0012504460491A9464FF00008D4E95D
:10B0B0000D31D4F830C00FE05A09E76B0139581C44
:10B0C000A163606357F8226003F01F0205FA02F2E1
:10B0D000324200F02A8103469C45EDD1002900F060
:10B0E00052822368E66AD3E90802B444914228BF39
:10B0F0001146BCFBF0F300FB13C32163E362E06B7A
:10B10000C4F83480D208002108F0BCFC6368013325
:10B11000CDD0A3680133CAD000220123CDE9062394
:10B120000122002004F1140796462268E36A116A9E
:10B13000266BCB1A03EB000CBCFBF1F001FB10C03B
:10B14000864210D94609E16B00F01F0051F8263005
:10B1500005FA00F0184341F82600D4E90B36116ACD
:10B16000DDF81CE0CB1A7344B3FBF1F201FB1233A0
:10B17000B3420AD25809E16B03F01F0351F82020B3
:10B1800005FA03F3134341F8203006AA0FA920461D
:10B19000FFF71AFA002840F0E9804FF00C08129AE5
:10B1A0000CAE23E02168109B096A8B4280F0F58188
:10B1B0000092CDE90168002239462046FEF7DEFF05
:10B1C000002840F0D3809DF831209DF832109DF882
:10B1D00033C0129B04320A449DF8301062441A4472
:10B1E00001F07003102B129200F0C580179B23F022
:10B1F0000043043B02F10C019942D3D9DDE9180E5A
:10B20000411CCDE9060E02D0BEF1FF3F8DD1D4F82E
:10B210000C804646B8F1000F3FF447AFF369DA03FC
:10B2200040F128817769002F00F02481D4F800A034
:10B23000DAF81C30013FA3F108084745C0F0A881A7
:10B24000B7FBF8F0013808F0DDF90230A7EB800712
:10B25000B7FBF8F704F11400E16AD4F830C0DAF86B
:10B26000202033690596834606F12C0008EE100A6B
:10B270000E4661469818A0EB060EBEFBF2F002FBEC
:10B2800010E28A420BD2E06B4FEA521C02F01F011F
:10B2900050F82C2005FA01F10A4340F82C20002F29
:10B2A00000F0E680DAF8202007F00108C8F1020A71
:10B2B00093424FEA8A0080F0708109A90022CDE90B
:10B2C00001100092594618EE102A2046FEF756FF4C
:10B2D00000284BD10AF1FF3CD4F800A012E0BEFBDD
:10B2E000F2F302FB13E38B424FF0010012D25E092E
:10B2F000E16B03F01F0351F8262009FA03F313430F
:10B3000041F82630E66ADAF82020099B216BA2EB8F
:10B31000060E9E446045E2DB1AAB03EB8C0CA8F1F1
:10B3200002085CF8443C4744A4E72168E26A096AE1
:10B330001344B3FBF1F201FB1233049A1360D4E916
:10B340000C03834211D0012506E0A26B0133013AC0
:10B350008342C4E90D3208D0590903F01F0257F89F
:10B36000211005FA02F20A42EFD100201BB0BDEC19
:10B37000028BBDE8F08F0E9E002E3FF411AFD4F883
:10B3800000A0DAF81C20013EA2F1080B5E450AD3AA
:10B39000B6FBFBF0013808F035F90230A6EB80036C
:10B3A000B3FBFBF31846E16AD4F830C00D9BDAF822
:10B3B000202008EE107A8E46074661469818A0EBCA
:10B3C0000E0EBEFBF2F002FB10E28A420AD25609D0
:10B3D000E06B02F01F0250F8261005FA02F20A4351
:10B3E00040F82620002F00F0D580DAF8202007F062
:10B3F0000106C6F1020A93424FEA8A0080F0CD802E
:10B4000009A90022CDE90110009218EE101A204679
:10B41000FEF7B4FE0028A9D10AF1FF3CD4F800A041
:10B4200013E0BBFBF2F302FB13B38B424FF00100BE
:10B4300014D24FEA531EE16B03F01F0351F82E2084
:10B4400009FA03F3134341F82E30D4F82CE0DAF86C
:10B450002020099B216BA2EB0E0B9B446045E0DB97
:10B460001AAB03EB8C0C023E5CF8443C3744A5E776
:10B47000059EF3699B0340F18180376A002F7DD0E0
:10B48000D4F800A0DAF81C20013FA2F108084745D3
:10B490007CD3B7FBF8F0013808F0B4F80230A7EB22
:10B4A0008007B7FBF8F704F11400E16AD4F830C064
:10B4B000DAF82020736A0596834606F12C0008EE20
:10B4C000100A0E4661469818A0EB060EBEFBF2F07D
:10B4D00002FB10E28A420BD2E06B4FEA521C02F0F0
:10B4E0001F0150F82C2005FA01F10A4340F82C20E6
:10B4F000002F42D0DAF8202007F00108C8F1020A34
:10B5000093424FEA8A0048D209A90022CDE90110EE
:10B510000092594618EE102A2046FEF72FFE00280A
:10B520007FF424AF0AF1FF3CD4F800A012E0BEFB88
:10B53000F2F302FB13E38B424FF0010012D25E09DB
:10B54000E16B03F01F0351F8262009FA03F31343BC
:10B5500041F82630E66ADAF82020099B216BA2EB3D
:10B56000060E9E446045E2DB1AAB03EB8C0CA8F19F
:10B5700002085CF8443C4744A5E7059E3668002E67
:10B580007FF44CAE91E56FF01B00EFE600278AE7F1
:10B5900000275FE618EE107A01E6034B034A0448E1
:10B5A000122108F0ADF900BF247103004C730300B1
:10B5B000447103002DE9F04F044687B00F4600F1B7
:10B5C000140905A92046FFF767FD064640B9206823
:10B5D0000599C3689847064630B110F1340FF0D092
:10B5E000304607B0BDE8F08FBB6A83B307F12C0A81
:10B5F00035460DF1130804F1200B13E02268059B7A
:10B60000126A934247D20122CDE9018200954A464F
:10B6100059462046FEF714FF002831D1BB6A013598
:10B62000AB4214D922687B6A126A93422DD201225E
:10B63000CDE901820095524649462046FEF79EFD1F
:10B640000028DBD00646304607B0BDE8F08F2368FF
:10B65000A16A9A69786B08F0EDF9D4E908122368B9
:10B66000A06AC7E90B12FF219A6908F00BFA059B43
:10B670004FF0FF32304622627B6207B0BDE8F08FA8
:10B6800010F1340F9DD00646DDE7064B064A074809
:10B69000122108F035F9034B054A04489C2108F0B3
:10B6A0002FF900BF247103004C73030044710300A1
:10B6B0005C7303002DE9F04F2DED028BC9B00446F9
:10B6C0002C2200211CA808F0DDF94FF000432822AD
:10B6D00027A80021249308F0D5F923681B6A0122CA
:10B6E0003192002B00F0C98100274FF00C09319BEB
:10B6F000013300F0B18130AA27A92046FEF764FF8C
:10B700000546002840F00C81249B002BC0F20E81DE
:10B710006368013300F04E81A368013300F04A8171
:10B7200032AE32460CAB25A92046FFF7C3F80028FD
:10B73000C0F2F58000F03E810E9B259A0F98269965
:10B74000934200F090818B4200F09381DDE91D511E
:10B75000239A26902068259301320023CDE91D15F8
:10B760000B9505932392C3680A9198474FF0FF38D1
:10B770000546F0B115F1340F40F0D2800A9BC4F8B1
:10B780002080012B40F279810B9B012B40F27581C7
:10B790001DA92046FFF780FC0546002840F0C08028
:10B7A00020681D9901230593C36898470546002822
:10B7B000E0D123AF0DF1500AA14610223946504680
:10B7C000CDF8508003F0F8FD59F8202B1D9B126A2C
:10B7D000934280F015821026CDE900572A46029642
:10B7E00049462046FEF72CFE05460028C2D1249B80
:10B7F00023F00043043B102B32D904F1140B3DAF6E
:10B8000022680B9B126A934280F0F4810122CDE9F9
:10B8100001720096002259462046FEF7AFFC05460D
:10B8200000287DD101223946504603F0C5FD22682B
:10B830001D9B126A934280F0E3810122CDE90172DF
:10B8400000962A4649462046FEF7FAFD054600289E
:10B8500090D1249B23F000430136043B9E42CFD37A
:10B8600022681D9B126A934280F0CA8104220292D0
:10B87000CDE9006A494600222046FEF7E1FD054673
:10B8800000287FF477AF216AC4F814804A1C12D0D4
:10B890002068A36A826900928568626AA8470546A3
:10B8A00000287FF467AF2368A06A9A69FF2108F037
:10B8B000E9F8C4F820802068036998470546002805
:10B8C0007FF458AF249EDDF874B0CDF8F48026F0F4
:10B8D000004604F11403043E08EE103A00F096818D
:10B8E00007460DF1400908E00137012249463DA80D
:10B8F00003F062FDBE4240F2898123681B6A9B45CA
:10B9000080F078810123CDE9019318EE101A009799
:10B910005B4600222046FEF731FC0028E4D00546B5
:10B92000284649B0BDEC028BBDE8F08F32AE4FF037
:10B930000008324627A92046FEF724FFF0B1831CF9
:10B94000EDD10DF19C0CBCE80F001CAE0FC6BCE89D
:10B950000F000FC69CE8070086E8070023681B6AF3
:10B9600001379F4280F08980309B01337FF4BFAE66
:10B97000284649B0BDEC028BBDE8F08F9DF9CC3074
:10B980009DF8CC20002BD4DA6368013341D0A36842
:10B9900001333ED034A92046FEF754FF0028BEDB19
:10B9A00035D0324627A9204601F0C8F90028C0D07A
:10B9B0000546B5E7DDE93050DDE91D21239B1D91EA
:10B9C000CDE925500133239308911E9209924FF03F
:10B9D000000801262068C3689847054600284FD014
:10B9E00015F1340F9CD1089B4FF0FF32012B2262DE
:10B9F00043D9099B012B40D91DA92046FFF74CFBD9
:10BA0000054600288CD11D994FF00108E2E79DF80A
:10BA1000CC20DDF8C8E09DF8CFC0CDF8F89002F05A
:10BA20007F020EF10C0033A9CDE93F198DF8CC202F
:10BA3000419001233DAA27A92046CDF80C81CDF8DD
:10BA4000F4E0CDF808C1CDF810C100F0F9F90028F4
:10BA50003FF46FAF054663E70025284649B0BDECCB
:10BA6000028BBDE8F08F88423FF461AF8B427FF4D8
:10BA70006DAE82427FF46AAE59E76FF033054FE74F
:10BA800023AFA2464FF0FF331022394607A8079391
:10BA900003F092FC5AF8202B1D9B126A934280F00F
:10BAA000AF804FF01009CDE900572A46CDF8089035
:10BAB00051462046FEF7C4FC0546002890D1249B41
:10BAC00023F00043043B102B34D904F1140B10AFC6
:10BAD0002268099B126A934280F08C80CDE901763E
